:020000040800F2
:10000000C0C40020951700083D0200083F02000808
:1000100043020008470200084B02000800000000ED
:100020000000000000000000000000004F02000877
:1000300051020008000000005302000855020008A9
:10004000AF170008AF170008AF170008AF17000878
:10005000AF170008AF170008AF170008AF17000868
:100060003D730008AF170008AF170008AF1700086E
:10007000AF170008AF170008AF170008AF17000848
:10008000AF170008AF170008AF170008AF17000838
:10009000AF170008AF170008AF170008AF17000828
:1000A000AF170008AF170008AF170008AF17000818
:1000B000AF1700082F6F0008AF170008AF17000830
:1000C000AF170008AF170008AF170008AF170008F8
:1000D000AF1700080B170008AF170008AF1700088C
:1000E000AF170008AF170008AF170008AF170008D8
:1000F000AF170008AF170008AF170008AF170008C8
:10010000AF170008AF17000875090008AF170008FF
:10011000AF170008AF170008C36F0008AF1700083B
:10012000AF170008AF170008AF170008AF17000897
:1001300000F002F800F073F80AA090E8000C824486
:100140008344AAF10107DA4501D100F068F8AFF263
:10015000090EBAE80F0013F0010F18BFFB1A43F0A5
:100160000103184760720200807202000A444FF0D7
:10017000000C10F8013B13F0070408BF10F8014B06
:100180001D1108BF10F8015B641E05D010F8016B4B
:10019000641E01F8016BF9D113F0080F1EBF10F8AF
:1001A000014BAD1C0C1B09D16D1E58BF01F801CBD2
:1001B000FAD505E014F8016B01F8016B6D1EF9D555
:1001C0009142D6D37047000000230024002500266A
:1001D000103A28BF78C1FBD8520728BF30C148BFAA
:1001E0000B60704764290CF0458578290CF07E85FA
:1001F00073290CF0B987002070471FB50DF04EFB36
:100200000400002000211CF083FB401C60600020E3
:1002100000211CF067FBE0601FBD10B510BD0DF0A4
:10022000B7F81146FFF7E9FF00F08FF90DF030FB4A
:1002300003B4FFF7F2FF03BC01F00CFA704700BFF4
:10024000FEE700BFFEE700BFFEE700BFFEE7704726
:1002500070477047704700000CB500200190009077
:100260006C48006840F480306A49086000BF694803
:10027000006800F4003000900198401C0190009844
:1002800018B90198B0F5A06FF1D16248006800F488
:10029000003010B10120009001E000200090009893
:1002A000012843D15C48006840F010005A490860BA
:1002B0000846006820F0030008600846006840F027
:1002C0000200086053484068524948600846406848
:1002D00048600846406840F48060486008464068CE
:1002E00020F47C1048600846406840F4E8104860FC
:1002F0000846006840F08070086000BF454800680C
:1003000000F000700028F9D04248406820F0030057
:10031000404948600846406840F00200486000BF1D
:100320003C48406800F00C000828F9D10CBD10B51D
:10033000FFF792FF10BD10B53648006840F001008D
:1003400034490860084640683449084031494860EB
:1003500008460068324908402E490860084600688F
:1003600020F4802008600846406820F4FE004860C1
:100370004FF41F008860FFF7DAFF4FF00060294953
:10038000086010BD10B5002100200022214B5B68E1
:1003900003F00C0121B1042906D0082928D107E077
:1003A000214B224C236027E01F4B204C236023E08D
:1003B000184B5B6803F47010164B5B6803F48032D3
:1003C000022303EB904022B9194B4343174C23609F
:1003D0000DE0104B5B6803F4003323B1144B43432F
:1003E000124C236003E0104B4343104C236003E0A6
:1003F0000D4B0E4C236000BF00BF064B5B68C3F380
:1004000003130C4CE15C094B1B68CB40074C236089
:1004100010BD000000100240002002400000FFF864
:10042000FFFFF6FE08ED00E000127A000000002059
:1004300000093D00040000202DE9F04F85B004467E
:100440004FF00009D4F804A020680F2804D01D281C
:1004500006D0262871D140E003A814F0B7FD70E063
:10046000002632E006F63201504614F0E1FD8346E4
:10047000002158460EF066F90D2E02D00E2E22D124
:1004800010E007200346474A0021009058460EF02E
:1004900049F907200346434A0121009058460EF0CF
:1004A00041F910E0072003463F4A002100905846DA
:1004B0000EF038F9072003463B4A012100905846C8
:1004C0000EF030F900BF00BF761C102ECAD340F6E4
:1004D0003E01504614F0ACFD33E0A06814F0D9FDA5
:1004E0000546D4F80C80B8F1010F03D0B8F1020F23
:1004F00021D102E04FF0010900BF40F632008542F1
:1005000018D340F64200854214D8401F854207D2D6
:100510000A226946A0680EF0DFF89DF8007004E03A
:10052000A5F63D00214951F820704946384611F0A2
:1005300021FB00BF00BF00BF00BF204614F060FCDD
:1005400000BF00BF05B0BDE8F08F10B500F030F877
:100550004FF4A06001F054FA4FF4E13001F089F853
:1005600006F0CEFF07F0C3FF06F0F5FB06F0EEFE47
:1005700040F2CF2140F2E73006F0F6FC002001F017
:1005800040F9012001F03DF90121402002F0BBF8C3
:10059000042015F015FB10F0E3FD00F09DFF002096
:1005A00010BD0000A8DD010894DD01081400002042
:1005B00010B56FF0040001F072FA2E4800682E4961
:1005C000B0FBF1F02D4908700846007800EB4001BF
:1005D000C1EBC0104FF6FF7101EAC0002849088046
:1005E00010BD0146254A12784A434FF0E0235A6174
:1005F00000229A611A46126942F001021A6100BF94
:100600004FF0E022106900F001021AB100F48032CC
:10061000002AF5D04FF0E022126922F001024FF0DB
:10062000E0231A6100229A6170470146144A128839
:100630004A434FF0E0235A6100229A611A46126938
:1006400042F001021A6100BF4FF0E022106900F091
:1006500001021AB100F48032002AF5D04FF0E022F6
:10066000126922F001024FF0E0231A6100229A6120
:10067000704700000000002000127A0024000020D3
:10068000260000202DE9F04F85B004464FF0000908
:10069000D4F804A020680F2804D01D2806D02628EE
:1006A00071D140E003A814F091FC70E0002632E024
:1006B00006F63201504614F0BBFC83460021584632
:1006C0000EF040F80D2E02D00E2E22D110E00720A1
:1006D0000346FD4A0021009058460EF023F80720FB
:1006E0000346F94A0121009058460EF01BF810E02D
:1006F00007200346F54A0021009058460EF012F8F4
:1007000007200346F14A0121009058460EF00AF8EE
:1007100000BF00BF761C102ECAD340F63E015046E3
:1007200014F086FC33E0A06814F0B3FC0546D4F85E
:100730000C80B8F1010F03D0B8F1020F21D102E013
:100740004FF0010900BF40F63200854218D340F651
:100750004200854214D8401F854207D20A226946CA
:10076000A0680DF0B9FF9DF8007004E0A5F63D000B
:10077000D74951F820704946384611F0FBF900BFBF
:1007800000BF00BF00BF204614F03AFB00BF00BF0F
:1007900005B0BDE8F08FF0B58DB005460C46022CD3
:1007A00027D12022CBA105A80CF0C2FBD14811F023
:1007B000FBF910F07DFC064603A814F077FC01A9B4
:1007C000284614F0D5FCBDF80C00304400B2ADF85A
:1007D0001000FF2011F0DEF905A80CF003FB07461E
:1007E000C5483B46022203A9009005A810F060F915
:1007F00000BF0DB0F0BD2DE9F14F84B004981CF09E
:100800007CFBBE4ABE4BCDE900011CF0DDFB064679
:100810001BF0E0FF044600224FF080431CF0D4FBA5
:1008200080461CF08BF8029002981DF039F8C82120
:1008300000FB01FB58461CF060FB06464FF0663299
:10084000B04B1CF069F980460022AF4B1CF0A8F8B1
:1008500004461CF025FB80B203900020AB490860E1
:100860000846008881B2002003F081FBA84908698E
:10087000A649098809B20FF07BF8BAF10A0F03D034
:10088000BAF10B0F0CD105E0A0480068401F9F494A
:10089000086005E09D480068401D9C49086000BF55
:1008A00000BF9A480068B0F5967F02DD4FF00A0A53
:1008B00006E096480068B0F5967F01DC4FF00B0A21
:1008C00005B0BDE8F08F2DE9F0470F2101200BF0B6
:1008D00001FF04464FF4D270604340F6FF7190FB75
:1008E000F1FAE00290FBF1F5A00290FBF1F6C82EC0
:1008F00000DBC826C82D00DBC825BAF1C80F01DB14
:100900004FF0C80A8348046083490968681A1CF0DC
:10091000F4FA21F0004107460022804B1CF052FC03
:1009200019D84FF0000913E0A00240F6FF7190FBC8
:10093000F1F6C82E00DBC8267549886829B20FF089
:1009400017F87349086831B20FF012F809F101097C
:10095000B9F10A0FE8DB704805606D4948680FFA85
:100960008AF10FF005F86A49086831B20FF000F813
:10097000BDE8F0872DE9F0470121694802F02DFE1E
:1009800000287CD00121664802F038FE40F60B01B9
:100990006448006814F04CFB6349086040F61B0192
:1009A0006048006814F044FB804660495E48006877
:1009B00013F0EFFD5E495C48006813F0B3FD5D483D
:1009C000806B01287ED100205A4948640846C06BDC
:1009D00010B1012877D1C8E05648806A142801D3A5
:1009E000012000E00020322837DC53A14E48006887
:1009F00013F0AAFD4F4890F8280000F0010060B302
:100A00004C48406B401C4B4948630846406841498C
:100A1000096808444749486008464068496BB0FB8C
:100A2000F1F04449886088681CF08EFF81461CF014
:100A3000DBFD0646434A444B1CF0C6FA04461BF055
:100A40007DFF4249086008680BF0CAFE4049086013
:100A500008460168404613F077FD3648806A33281F
:100A60007AD3344988681CF06FFF81461CF0BCFDC6
:100A70000646344A344B1CF0A7FA044600E0BAE1BB
:100A80001BF05CFF3149086000202A494863486038
:100A9000886088620846C06B401CC86300212048FB
:100AA00002F0D2FA294908680BF09AFE284908603A
:100AB00014220846016827480BF0F5FF2448016816
:100AC00040464AE0C3E0C1E0D4DF0108C0DF0108CE
:100AD0002800002045666665637469766520636F4B
:100AE0006E63656E74726174696F6E203B2045435E
:100AF00000000000D02F0208BC0100209A999999AB
:100B00009999A93F66660A40000059407C00002080
:100B1000FC0300207800002080000020000024401A
:100B2000000C0040380000203C0000200080FF0046
:100B30003005020810040020E7AD89E5BE852E2EA1
:100B400000000000B4D934E70C684A3F7404002068
:100B50006C00002010F0070806E013F0F5FCFDA182
:100B6000FE48006813F0F0FC70E0FD48806A14282D
:100B700001D3012000E0002032282EDCAFF2480132
:100B8000F648006813F0E0FCF54890F8280000F003
:100B9000010010B3F248406B401CF149486308461D
:100BA0004068F04909680844ED49486008464068D3
:100BB000496BB0FBF1F0EA49886088681CF0C4FE1C
:100BC00081461CF011FD0646E74AE84B1CF0FCF993
:100BD00004461BF0B3FEE6494860E148806A3328CA
:100BE00033D3E34A116850681CF0CCFF0746E04855
:100BF000C16938461CF092FD04461CF0F5FC21F05A
:100C0000004105461BF09AFED949C860D9A1D348D6
:100C1000006813F099FCD649C8680BF0E1FDD7498C
:100C20000860142208460168D5480BF03CFF0A20F2
:100C3000CB49086600204863486088608862886302
:100C4000C8630021CF4802F0FFF900BF00BFC448CD
:100C5000406C0A282BD1C248806B0028FAD140F69C
:100C60000801C948006814F0E3F9BC49086040F67F
:100C70000901C548006814F0DBF98046C349B7484C
:100C8000006813F04FFCBA49C8681CF0ADFC04467C
:100C9000BF4AC04B1CF05CF90AD8FF21AF4800687E
:100CA00013F077FCBCA1AD48006813F04DFC9DE04B
:100CB000AB48806A142801D3012000E000203228CC
:100CC00037DCB8A1A548006813F03EFCA44890F8B2
:100CD000280000F0010060B3A148406B401CA0490F
:100CE0004863084640689F49096808449C49486031
:100CF00008464068496BB0FBF1F099498860886804
:100D00001CF022FE81461CF06FFC0646964A974B6B
:100D10001CF05AF904461BF011FE954948604868DA
:100D20000BF05EFD9549086008460168404613F0E7
:100D30000BFC8B48806A332858D39CA187480068F5
:100D400013F002FC864988681CF0FEFD81461CF009
:100D50004BFC0646844A854B1CF036F904461BF0D2
:100D6000EDFD834948617E48006EB8B90A22914979
:100D700083480BF087FE00218E481BF0A1FD8E49B1
:100D80000860084600687A49C8600B465A691968C5
:100D9000D8680BF0DEFD7649886107E0744B5A692C
:100DA0001968D8680BF0D5FD7149886140F60901D2
:100DB0007548006814F03CF9684908606C49886916
:100DC0000BF00EFD6D490860084601686348006835
:100DD00013F0BAFB0C206249486400208862486323
:100DE000486088600021674802F02EF95C48806AFC
:100DF000401C5B498862BDE8F08730B5002903DA02
:100E00002D2400F8014B4942024671B10AE00A2440
:100E100091FBF4F504FB1514303400F8014B0A245F
:100E200091FBF4F10029F2D102E0302400F8014BEB
:100E3000002400F8014905E01378047802F8014B1A
:100E400000F801398242F7D330BD2DE9F84304465A
:100E50000FF268180BF0CEFB20681D2802D0262860
:100E600076D1A6E111F03AF966685949304613F097
:100E700059FB1E2130460DF036FF554930460DF026
:100E8000ABFE414630460DF0E6FE0E2130460DF039
:100E900001FF504930460DF011FF40F60101606836
:100EA00014F0C6F80646082002231A461946009098
:100EB00030460EF0ECFD484900231A4608684FF40E
:100EC000FA710EF06DFD454908600846016830462C
:100ED0000EF078FC404900231A4648684FF4FA7136
:100EE0000EF05EFD3D4948600846416830460EF010
:100EF00069FC394900231A4688684FF4FA710EF0EC
:100F00004FFD364988600846816830460EF05AFC2D
:100F1000314900231A46C8684FF4FA710EF040FDBB
:100F20002E49C8600846C16830460EF04BFC2A497D
:100F300000231A4608694FF4FA710EF031FD274973
:100F400008610846016930460EF03CFC192147E073
:100F5000BBE20000E6A0A1E4B88000003C00002055
:100F60001004002078000020B4D934E70C684A3F10
:100F700074040020E6A0A1E4BA8C00006C000020FC
:100F800000F00708000C004038000020300502087F
:100F90007B14AE47E17A843FE8AFB7E6A0A1E587CE
:100FA00086000000E7AD89E5BE850000E6B593E563
:100FB000BAA600009404002074000020E58D97E498
:100FC000BAACE5B7A5E4B89AE5A4A7E5ADA60000DC
:100FD00008EF01080080C00048000020FC0300204A
:100FE00030460EF070FD012130460EF0A0FD0121CB
:100FF00030460EF07DFDFE4930460EF0AFFD192360
:101000000122114623200EF007FDFA4908604FF631
:10101000FF71F84800680EF027FDF6480168304679
:101020000EF0EDFB32230022022164200EF0F4FCCE
:10103000F14908604FF40041EF4800680EF014FDDC
:10104000ED48016830460EF0DAFB40F602016068B8
:1010500013F0EEFF0646E94930460DF07BFBE8A1B0
:1010600030460DF08FFB40F60301606813F0E0FF9F
:101070000646E24930460DF06DFBE3A130460DF027
:1010800081FB40F60601606813F0D2FF0646DB499B
:1010900030460DF05FFBDEA130460DF073FB40F6ED
:1010A0000401606813F0C4FF0646D44930460DF0D1
:1010B00051FBD9A130460DF065FB40F60501606893
:1010C00013F0B6FF0646CD4930460DF043FBD4A1E0
:1010D00030460DF057FB40F61B01606813F0A8FF87
:1010E0000646D149304613F054FAD049304613F041
:1010F00019FACFA1304613F027FA40F60B016068C9
:1011000013F096FF0646C849304613F042FABB4931
:10111000304613F007FAC8A1304613F015FA40F62E
:101120000701606813F084FF0646BF49304613F09C
:1011300030FAB249304613F0F5F9C2A1304613F047
:1011400003FA40F60E01606813F072FF0646B649D6
:10115000304613F01EFAB549304613F0E3F9B4A156
:10116000304613F0F1F940F60801606813F060FFB3
:101170000646AD49304613F00CFAA049304613F04C
:10118000D1F9AFF2D811304613F0DEF940F609017B
:10119000606813F04DFF0646A349304613F0F9F995
:1011A000A249304613F0BEF9A1A1304613F0CCF9A4
:1011B0008FE1A06813F06DFF0746E568A7F602000F
:1011C000052830D2DFE800F003306AF8DE00012D98
:1011D00002D0022D26D124E001209D49086040F66E
:1011E0000201606813F024FF06464FF07E509949D3
:1011F000C86101209649886341F61F4142F20F7091
:1012000005F058FF4FF48071934801F07AF84FF4DD
:101210007A70FFF70AFA4FF480718F4801F073F883
:1012200000E000BF00BF4EE1012D02D0022D33D1FE
:1012300031E001208649086040F60301606813F040
:10124000F7FE06466D4930460DF084FA8048006C82
:10125000012807D100207E4908646BA130460DF0BB
:1012600091FA09E07A48006C30B9012078490864A5
:1012700065A130460DF086FA4FF48071764801F092
:1012800040F84FF47A70FFF7D0F94FF4807172484C
:1012900001F039F800E000BF00BF14E1012D02D0D9
:1012A000022D6DD16BE00120694908600846806B12
:1012B000002855D10846006E98BB40F61B016068B7
:1012C00013F0B6FE06460A22644965480BF0DAFBC5
:1012D000002162481BF0F4FA624908600846006881
:1012E0005C49C860C8680BF07BFA5F490860FF2161
:1012F000304613F04EF95C480168304613F024F98B
:101300000A225649564810300BF0BCFB00215348C6
:101310001BF0D6FA53490860084600684D4908603A
:1013200015E0FFE740F61B01606813F081FE0646FA
:101330004849C8680BF054FA4B4908600021304610
:1013400013F027F948480168304613F0FDF841F6DC
:101350001F4142F20F7005F0ADFE0A203C4948647F
:101360004FF480713C4800F0CCFF4FF47A70FFF7E7
:101370005CF94FF48071384800F0C5FF00E000BF11
:1013800000BFA0E0012D02D0022D78D176E03048D8
:10139000C06C90B90821304800F0B5FF4FF40071DF
:1013A0002D4800F0AEFF4FF4C871142005F092FDF7
:1013B00001202749C86410E063E00821264800F0B6
:1013C000A0FF4FF40071244800F09DFF0021274842
:1013D00001F03AFE00201E49C8644FF480711E4897
:1013E00000F08FFF4FF47A70FFF71FF940E046E0FE
:1013F0009707000840000020440000203005020844
:10140000E6A0A1E587860000E5BC80E5A78B00008B
:10141000E69085E68B8C0000E98787E99B860000D3
:10142000E6B885E6B49700000080FF00784E020819
:10143000302E303030000000E6A0A1E58786E58040
:10144000BC000000E98787E6A0B7E580BC0000008B
:101450001004002074040020000C014094040020BB
:1014600000F0070874000020700000200004004015
:101470004FF48071674800F046FF00E000BF00BFF6
:1014800021E0012D02D0022D1BD119E06248806CB1
:10149000012803D100206049886402E001205E49F0
:1014A00088644FF480715B4800F02BFF4FF47A7032
:1014B000FFF7BBF84FF48071564800F024FF00E0BE
:1014C00000BF00BF00BF00BF03E0204613F098FC40
:1014D00000BF00BFBDE8F8830EB506F011F806F0B6
:1014E00031F80BF05BFA14204C4908604C49086055
:1014F00000204C490860C8604749086613F082FD27
:101500000546002000902B46474A0D210190474890
:101510000FF006F981464648C0F8009078E03E4852
:101520000068012801D1FFF7CEF93B48006C012883
:1015300031D1404800681BF0E0FC07464FF06632AE
:101540003D4B1BF041FD00223C4BCDE900011BF05F
:10155000E3FA05461BF0F2F90446514620461CF01A
:1015600011FB07461CF040F821F000410546344AC3
:10157000344B1BF027FE0DD820460BF031F90290BA
:1015800040F60E01484613F053FD83465846029933
:1015900012F0DAFFA2462048806C012829D10021F0
:1015A000294801F051FD4FF47A7140F6533005F0AF
:1015B00015FD19480068012805D124480068C8387D
:1015C0002249086007E01448006820B91F480068F5
:1015D000401E1E4908601D480068002802DA0020ED
:1015E0001A4908601948008881B2194801F0C4FFFF
:1015F0000CE00948806C48B940F653301349086044
:101600000846008881B2124801F0B6FF0FF078FC5E
:1016100085E70000000C0140100400208800002035
:101620008C000020740400204B0E0008D0E101085B
:10163000380000207800002066660A400000B040B4
:101640007B14AE47E17A743F000400408400002020
:1016500000080040014600BF704700BF494A128899
:1016600002F04002002AF9D0C2B2464B1B1D1A807C
:10167000704710B586B00446012144F2040001F021
:101680004FF84FF40070ADF8140003208DF81600E9
:1016900018208DF8170005A93B4800F085FD4FF490
:1016A0008060ADF8140004208DF8170005A93648B5
:1016B00000F07AFD25208DF8000003208DF8010050
:1016C0008DF8020001208DF80300684600F09DF9B6
:1016D00001940020ADF80800ADF80A00ADF80C0048
:1016E000ADF810000C20ADF80E0001A9254801F05E
:1016F000CCFF012240F22551224802F05EF8012180
:10170000204802F04EF806B010BD10B540F2255149
:101710001C4802F037F910B31A4802F0B3F8C4B20B
:101720001A48008800F40040C8B91848008800F43E
:10173000804060B10A2C03D000201449088020E0CA
:101740001248008840F400401049088019E00D2C30
:1017500006D10E48008840F480400C49088010E013
:101760000A480088C0F30D0009490C540748008856
:10177000401C0649088008460088C72801DD002073
:10178000088010BD0038014000080140940000208E
:101790009F0400200948804709480047FEE7FEE70C
:1017A000FEE7FEE7FEE7FEE7FEE7FEE7FEE7FEE711
:1017B00004480549054A064B7047000037030008F6
:1017C00031010008C0BA0020C0C40020C0BC002005
:1017D000C0BC002070B503460C4603E014F8015B62
:1017E00003F8015B1500A2F10102F7D170BD30B51D
:1017F000034601E003F8011B1400A2F10102F9D134
:1018000030BD10B504467A4951F824104A00794990
:1018100051F824000021FFF7EAFF774951F824200E
:101820007449083951F824000021FFF7E0FF012135
:1018300070480830015510BD10B501460023002244
:1018400007E06C4850F8210030F8120000B15B1C32
:10185000521C674850F821009042F2D86420584347
:10186000634C54F82140B0FBF4F0C0B210BD2DE938
:10187000F04704460F460025A9465E480830005D43
:1018800020B95C4810380168204688471FB94FF0DE
:10189000FF30BDE8F087594850F82400B7FBF0F658
:1018A000564850F82400B7FBF0F100FB117000B16E
:1018B000761C4F4850F82400451E20E04D4850F853
:1018C000240030F8150010B909F1010901E04FF0CA
:1018D0000009B14512D14FF0000808E0454850F822
:1018E000240005EB080220F8126008F10108B04559
:1018F000F4D3424850F824006843CAE76D1E002D17
:10190000DCDA4FF0FF30C4E72DE9F04104460E4623
:1019100038480830005D38B936481038016820462C
:1019200088470120BDE8F081334850F82400B042D8
:1019300017D9324850F82400B6FBF0F12D4850F882
:10194000240030F81120002507E00023294850F832
:1019500024004F1920F817306D1C9542F5DB00204C
:10196000E0E70220DEE770B505460C4604B970BD1D
:101970002048083850F82500261A31462846FFF737
:10198000C3FF00BFF3E770B504460E46314620465C
:10199000FFF76DFF0546681C08B9002070BD1548AB
:1019A000083850F824002844F8E72DE9F0410446AF
:1019B0000F46164631462046FFF759FF0546681C7C
:1019C00010B90020BDE8F0810A49083951F8241007
:1019D000481932463946FFF7FDFE39462046FFF7E3
:1019E000C2FF0448083850F824002844EAE7000001
:1019F0003CE30108A80000204CE3010844E301088F
:101A000031490143314A1160704770B5002100230C
:101A10000F22C47804B32D4C246804F4E064C4F5A8
:101A2000E064210AC1F10403CA40447804FA03F1D6
:101A30008478144021430901254C0678A155047887
:101A400004F01F050124AC4005786D11AD0005F1CF
:101A5000E025C5F8004109E0047804F01F050124E1
:101A6000AC401C4D0678761145F8264070BD1A4AE8
:101A70000A400243154B1B1F1A60704739B1134AC5
:101A8000121D12680243114B1B1D1A6006E00F4A1B
:101A9000121D126882430D4B1B1D1A6070470428EB
:101AA00008D14FF0E021096941F004014FF0E02234
:101AB000116107E04FF0E021096921F004014FF0C6
:101AC000E0221161704700000000FA050CED00E013
:101AD00000E400E080E100E080FFFF1F30B943F246
:101AE000DB028100A1F1C0410A6005E043F2D202AD
:101AF0008100A1F1C0410A606FF07042411C890071
:101B0000A1F1C0410A608100A1F1C041C1F80421E6
:101B1000704710280AD118214FF020421166402149
:101B200051664FF0FC319166D16610E01821F74AFA
:101B3000116040214FF02042C2F884104FF0FC3178
:101B4000F24A083211604FF02042C2F88C10704700
:101B50001820EE492031086000200906C1F8A400D1
:101B60004FF0FC30E94928310860091D0860091D63
:101B700008607047D0E901121143C268114302693D
:101B800011434269114382691143C2691143026AD8
:101B90001143426A1143826A1143C26A1143026BC4
:101BA000114302689200A2F1C042116081680829C5
:101BB0000BD101688900A1F1C041096841F04002E0
:101BC00001688900A1F1C0410A60416B0968426B5C
:101BD000526841EA0211426B926841EA0221426B6B
:101BE000928941EA0241426B128A41EA0251426BF8
:101BF000127D41EA0261426B926911430268521CF4
:101C00009200A2F1C0421160C16AB1F5804F1BD1B0
:101C1000816B0968826B526841EA0211826B92689B
:101C200041EA0221826B128A41EA0251826B127DE3
:101C300041EA0261826B9269114302689200A2F14B
:101C4000C042C2F8041107E06FF0704201688900D9
:101C5000A1F1C041C1F80421704730B50021002234
:101C60000023446844F0080485682C43C5682C436D
:101C700005692C43456944EA4524856944EA4531B0
:101C8000C4692468C5696D6844EA0524C5692D895D
:101C900044EA0544C5692D7B44EA0562046A246868
:101CA000056A6D6844EA0524056A2D8944EA0544FD
:101CB000056A2D7B44EA05630468102C05D14FF0BA
:101CC00020442166A266E36608E0904C21604FF054
:101CD0002044C4F888208D4C0C34236030BD01684A
:101CE00041F01001426841EA4221826841EA4231F2
:101CF000864A20321160C1680968C268526841EAA8
:101D00000221C268128941EA0241C268127B41EA9B
:101D100002617E4A283211600169096802695268CD
:101D200041EA02210269128941EA02410269127BF9
:101D300041EA0261754A2C321160416909684269C1
:101D4000526841EA02214269128941EA024142692C
:101D5000127B41EA02614FF02042C2F8B010704796
:101D6000002101600221416000218160C1600161A8
:101D700041618161C16101624FF48051416249005A
:101D800081620021C16201630F21426B1160426BCD
:101D90005160FF21426B91600F21426BD160426B19
:101DA0001161426B51610021426B91610F21826B85
:101DB0001160826B5160FF21826B91600F21826BF9
:101DC000D160826B1161826B51610021826B9161E4
:101DD000704710210160002141608160C160016194
:101DE00041618161FC21C2691160C2695160C269AF
:101DF0009160C269D160026A1160026A5160026A30
:101E00009160026AD1607047002101604160816089
:101E1000FC21C2681160C2685160C2689160C268EA
:101E2000D1600269116002695160026991600269C2
:101E3000D1604269116042695160426991604269B2
:101E4000D160704751B18200A2F1C042126842F0E5
:101E500001038200A2F1C042136009E08200A2F1F6
:101E6000C04212682A4B1A408300A3F1C0431A6093
:101E7000704799B1102808D14FF02042126E42F0FD
:101E800004024FF020431A661DE0204A126842F017
:101E900004024FF02043C3F8802014E0102809D139
:101EA0004FF02042126E1A4BDB1E1A404FF02043B7
:101EB0001A6608E0154A1268154BDB1E1A404FF0EF
:101EC0002043C3F88020704748B110492031096889
:101ED00041F004014FF02042C2F8A01009E00B4984
:101EE000203109680A4AD21E11404FF02042C2F840
:101EF000A0107047B9B110280CD14FF02042126EDB
:101F000042F040024FF020431A661FE0800000A01C
:101F1000FEFF0F00724A126842F040024FF0204369
:101F2000C3F8802012E0102808D14FF02042126E32
:101F30006C4B1A404FF020431A6607E0684A12685B
:101F4000684B1A404FF02043C3F880207047014689
:101F50000020102903D14FF02042506F02E0604A68
:101F600014321068704710B5F2B1102807D14FF045
:101F700020435B6E0B434FF02044636632E0B0F5C4
:101F8000807F08D1564B1B1D1B680B434FF020442C
:101F9000C4F8843026E0524B24331B680B434FF0C7
:101FA0002044C4F8A4301DE0102807D14FF020438E
:101FB0005B6E8B434FF02044636613E0B0F5807F87
:101FC00008D1474B1B1D1B688B434FF02044C4F8BE
:101FD000843007E0424B24331B688B434FF020448E
:101FE000C4F8A43010BD10B5024600200023102A0A
:101FF00003D14FF02044636E09E0B2F5807F03D136
:10200000374C241D236802E0354C2434236803EA4E
:1020100001040CB1012000E0002010BD102807D100
:102020004FF02042526E8A434FF020435A6613E02D
:10203000B0F5807F08D12A4A121D12688A434FF0FA
:102040002043C3F8842007E0254A243212688A43DB
:102050004FF02043C3F8A420704770B5024600201B
:10206000002300240025102A03D14FF02046736E70
:1020700009E0B2F5807F03D1194E361D336802E0C6
:10208000174E2436336803EA010403EAD10514B17C
:102090000DB1012000E0002070BD102808D14FF0E4
:1020A0002042526E22EAD1024FF020435A6615E0D8
:1020B000B0F5807F09D10A4A121D126822EAD102C6
:1020C0004FF02043C3F8842008E0054A2432126808
:1020D00022EAD1024FF02043C3F8A4207047000049
:1020E000800000A0BFFF0F0010B50446CC4884421A
:1020F00008D10121042000F02DFB0021042000F074
:1021000029FB46E0C748844208D10121082000F09D
:1021100021FB0021082000F01DFB3AE0C248844268
:1021200008D10121102000F015FB0021102000F043
:1021300011FB2EE0BD48844208D10121202000F08F
:1021400009FB0021202000F005FB22E0B848844272
:1021500008D10121402000F0FDFA0021402000F0CC
:10216000F9FA16E0B348844208D10121802000F03A
:10217000F1FA0021802000F0EDFA0AE0AE48844236
:1021800007D10121801500F0E5FA0021A01500F02B
:10219000E1FA10BD10B50121084600F0DBFA00217C
:1021A000012000F0D7FA10BD2DE9F04102460025CC
:1021B0000026002000230024002791F803C00CF023
:1021C0000F0591F803C00CF0100CBCF1000F03D008
:1021D00091F802C04CEA050591F800C0BCF1000F6F
:1021E00031D0146800202BE04FF0010C0CFA00F302
:1021F000B1F800C00CEA03069E4220D183004FF0E4
:102200000F0C0CFA03F7BC4305FA03FC4CEA040478
:1022100091F803C0BCF1280F06D14FF0010C0CFA65
:1022200000FCC2F814C00AE091F803C0BCF1480FEA
:1022300005D14FF0010C0CFA00FCC2F810C0401C94
:102240000828D1D31460B1F800C0BCF1FF0F34DD11
:10225000546800202EE000F1080C4FF0010808FA45
:102260000CF3B1F800C00CEA03069E4221D18300B2
:102270004FF00F0C0CFA03F7BC4305FA03FC4CEAD1
:10228000040491F803C0BCF1280F05D100F1080C3B
:1022900008FA0CF8C2F8148091F803C0BCF1480F9A
:1022A00007D100F1080C4FF0010808FA0CF8C2F849
:1022B0001080401C0828CED35460BDE8F0814FF652
:1022C000FF710180022181700421C17070470246B4
:1022D000002093680B400BB1012000E00020704704
:1022E0000146886880B2704702460020D3680B40E0
:1022F0000BB1012000E0002070470146C86880B2A1
:10230000704701617047416170470AB1016100E0A7
:1023100041617047C16070474FF480320A43826167
:102320008161826182698269704702460020434B65
:1023300018684FF68073184040EA021008433F4B7C
:10234000186070473E49C8617047F0B50A460023DF
:1023500000240021002500F00046B6F1004F02D114
:10236000364EF16901E0354E7168C0F3034583B222
:1023700000F44016B6F5401F08D121F070612F4ED1
:10238000766826F070662D4F7E6012E000F48016AD
:10239000B6F5801F06D1032606FA05F4A14341F0E5
:1023A000706106E0460D360103FA06F6B14341F0CE
:1023B000706122B1460D360103FA06F6314300F092
:1023C0000046B6F1004F02D11C4EF16101E01B4EF8
:1023D0007160F0BD30B500228B071C0F0F2303FA8C
:1023E00004F2164B08338C1053F824309343134CEB
:1023F00008348D1044F8253023468C1053F82430CF
:102400008C07240F00FA04F423430C4C08348D107D
:1024100044F8253030BD0A49DC31086070470000BF
:1024200000080140000C0140001001400014014070
:1024300000180140001C0140002001400000014044
:1024400000002042DF48006840F00100DD490860DC
:1024500008464068DC490840DA4948600846006898
:10246000DA490840D74908600846006820F480200F
:1024700008600846406820F4FE0048604FF41F00E2
:1024800088607047CF49096821F48031CD4A1160D6
:102490001146096821F480211160B0F5803F03D016
:1024A000B0F5802F0ED106E0C649096841F48031AD
:1024B000C44A116007E0C349096841F4A021C14A38
:1024C000116000E000BF00BF704710B50146002258
:1024D000002300204A11012A02D1BA4C236806E0E9
:1024E000022A02D1B74C236A01E0B64C636A01F0BC
:1024F0001F02012494401C400CB1012000E0002088
:1025000010BD38B5002000900024002500BF312008
:10251000FFF7DBFF05460098401C00900098B0F5DF
:10252000A06F01D0002DF2D03120FFF7CEFF08B10F
:10253000012400E00024204638BD01460020A14AC5
:10254000106820F0F80040EAC10010607047A04910
:1025500008607047024600209A4B586820F47C10AF
:1025600042EA01031843974B586070479849086640
:10257000704701460020934A506820F0030008434A
:10258000506070478F48406800F00C00704701466B
:1025900000208C4A506820F0F000084350607047DB
:1025A00001460020874A506820F4E06008435060EC
:1025B000704701460020834A506820F4605040EA8A
:1025C000C1005060704729B17E4A527A02437D4B68
:1025D0005A7204E07B4A527A82437A4B5A727047AD
:1025E0007B49D8310860704701460020754A506821
:1025F00020F440400843506070470021714A203267
:102600001170704A82F82010012802D004280AD1E3
:1026100004E001216B4A2032117005E00521694A6E
:102620002032117000E000BF00BF704769490860A8
:1026300070476449096A0143624A116270476549FB
:1026400044390860704730B500210022002400237F
:102650005C4D6D6805F00C0121B1042905D00829F5
:1026600023D105E05C4D056022E05B4D05601FE075
:10267000544D6D6805F47012524D6D6805F4803448
:10268000022505EB92421CB9544D554305600BE001
:102690004C4D6D6805F400351DB1504D5543056036
:1026A00002E04D4D5543056002E04B4D056000BF13
:1026B00000BF444D6D6805F0F0010909484D6B5CA1
:1026C0000568DD4045603F4D6D6805F4E061090A2D
:1026D000434D6B5C4568DD4085603A4D6D6805F49F
:1026E0006051C90A3E4D6B5C4568DD40C560354DA3
:1026F0006D6805F44041890B3A4D6B5CC568B5FBCC
:10270000F3F5056130BD29B12E4A526902432D4BC4
:102710005A6104E02B4A526982432A4B5A6170473E
:1027200029B1284A92690243264B9A6104E0254A5E
:1027300092698243234B9A61704729B1214AD26939
:102740000243204BDA6104E01E4AD26982431D4BEA
:10275000DA61704729B11B4AD2680243194BDA602B
:1027600004E0184AD2688243164BDA60704729B1F8
:10277000144A12690243134B1A6104E0114A1269A8
:102780008243104B1A617047124940390860704704
:102790000F49C86470470B49C87170470948406ABF
:1027A00040F0807007494862704701460020054AA2
:1027B00092680A400AB1012000E0002070470149F8
:1027C00088727047001002400000FFF8FFFFF6FE1D
:1027D000000042428004424200127A0000093D009B
:1027E000B4000020C400002010B50446FE48844216
:1027F00008D10121C014FFF7ADFF0021E014FFF75D
:10280000A9FFC4E0B4F1804F08D101210846FFF7C9
:10281000AEFF00210120FFF7AAFFB8E0F348844291
:1028200008D101210220FFF7A2FF00210220FFF7BB
:102830009EFFACE0EE48844208D101210420FFF75E
:1028400096FF00210420FFF792FFA0E0E9488442B0
:1028500008D101210820FFF78AFF00210820FFF797
:1028600086FF94E0E448844208D101211020FFF75C
:102870007EFF00211020FFF77AFF88E0DF488442C6
:1028800008D101212020FFF772FF00212020FFF74F
:102890006EFF7CE0DA48844208D101214014FFF742
:1028A00059FF00216014FFF755FF70E0D5488442BE
:1028B00009D10121C804FFF74DFF00214FF400208A
:1028C000FFF748FF63E0D048844209D101210805A1
:1028D000FFF740FF00214FF48010FFF73BFF56E069
:1028E000CA48844209D101214805FFF733FF00217E
:1028F0004FF40010FFF72EFF49E0C548844208D18D
:1029000001214020FFF733FF00214020FFF72FFF78
:102910003DE0C048844208D101218020FFF727FF15
:1029200000218020FFF723FF31E0BB48844208D11B
:1029300001218015FFF71BFF0021A015FFF717FFEE
:1029400025E0B648844209D101210804FFF702FFBF
:1029500000214FF48030FFF7FDFE18E0B0488442BC
:1029600009D101214804FFF7F5FE00214FF40030A2
:10297000FFF7F0FE0BE0AB48844208D10121880448
:10298000FFF7E8FE00214FF48020FFF7E3FE10BDC3
:1029900000220288944B98420ED0994B98420BD05B
:1029A000B0F1804F08D0914B984205D0904B98429F
:1029B00002D0904B984204D14FF68F731A404B8847
:1029C0001A438D4B984207D08C4B984204D04FF657
:1029D000FF431A40CB881A4302808B8883850B887B
:1029E0000385814B98420BD0854B984208D08B4B86
:1029F000984205D08A4B984202D08A4B984201D126
:102A00000B7A038601238382704770B5002400226D
:102A10000023058C4FF6FE7635400584028C8388B2
:102A2000048B4FF68F752C40B51E2C400D882C431F
:102A3000751E2A400D892A434D882A436A4DA842B3
:102A40000BD06F4DA84208D0744DA84205D0744DEC
:102A5000A84202D0734DA84213D14FF6F7752A4011
:102A60004D892A434FF6FB752A408D882A434FF63D
:102A7000FF652B404FF6FF552B408D892B43CD89A9
:102A80002B4383800483CD888586028470BD70B516
:102A9000002400220023058C4FF6EF763540058494
:102AA000028C8388048B48F6FF752C404FF6FF4557
:102AB0002C400D884FF6FF7606EA05252C434FF68D
:102AC000DF752A400D8906EA05152A434D8806EA76
:102AD00005152A43444DA84202D0494DA8421DD1B4
:102AE0004FF67F752A404D894FF6FF7606EA0515A9
:102AF0002A434FF6BF752A408D8806EA05152A43FA
:102B00004FF6FF352B404FF2FF752B408D8906EABB
:102B100085052B43CD8906EA85052B4383800483F5
:102B2000CD880587028470BD70B500240022002383
:102B3000058C4FF6FF6635400584028C8388848BB4
:102B40004FF68F752C404FF6FC752C400D882C43AA
:102B50004FF6FF552A400D894FF6FF7606EA052508
:102B60002A434D8806EA05252A431F4DA84202D074
:102B7000234DA8421DD14FF2FF752A404D894FF6D3
:102B8000FF7606EA05252A434FF6FF352A408D8851
:102B900006EA05252A434EF6FF752B404DF6FF75D4
:102BA0002B408D8906EA05152B43CD8906EA0515CC
:102BB0002B4383808483CD888587028470BD70B564
:102BC000002200230024058C4EF6FF763540058454
:102BD000038C8488828B48F6FF752A404FF6FF45A8
:102BE0002A400D8820E00000002C01400004004035
:102BF00000080040000C004000100040001400409D
:102C000000340140004C014000500140005401409C
:102C100000180040001C004000200040004001401F
:102C200000440140004801404FF6FF7606EA0525C2
:102C30002A434DF6FF752B400D8906EA05352B43D7
:102C40004D8806EA05352B43FA4DA84202D0FA4DCD
:102C5000A84208D14BF6FF752C408D894FF6FF76C0
:102C600006EA85152C4384808283CD88A0F84050E5
:102C7000038470BD828B4FF2FF331A408283828BB4
:102C80004FF6FF7303EA01231A4382837047F0B5BE
:102C90000C461546002200210026078C4EF6FF7CCC
:102CA00007EA0C070784828B018C4FF6FF7707EA4F
:102CB000043640F6FF473A404FF6FF7707EA05270C
:102CC0003A434FF6FF7707EA03373A43D94FB84202
:102CD0000ED0D94FB8420BD0B0F1804F08D0D74FAB
:102CE000B84205D0D64FB84202D0D64FB84206D12E
:102CF0004DF6FF77394046F48057394305E047F6F3
:102D0000FF57394044F48057394382830184F0BD32
:102D1000828B4FF6F3731A408283828B0A4382833D
:102D20007047F0B50C461546002200210026078C9E
:102D30004FF6FF6C07EA0C070784828B018C4FF675
:102D4000FF7707EA04264FF60C773A404FF6FF77F5
:102D500007EA03172F433A43B64FB8420ED0B64F97
:102D6000B8420BD0B0F1804F08D0B44FB84205D074
:102D7000B34FB84202D0B34FB84206D14FF6FF5717
:102D8000394046F48077394305E04FF2FF57394028
:102D900044F48077394382830184F0BD028B4FF283
:102DA000FF331A400283028B4FF6FF7303EA0123BD
:102DB0001A4302837047F0B50C46154600220021E5
:102DC0000026078C4FF6EF7C07EA0C070784028B7E
:102DD000018C4FF6FF7707EA041640F6FF473A40AA
:102DE0004FF6FF7707EA03373A434FF6FF7707EAD4
:102DF00005273A438F4FB8420ED08F4FB8420BD0C1
:102E0000B0F1804F08D08D4FB84205D08C4FB842FA
:102E100002D08C4FB84206D14FF6DF77394046F0EA
:102E20001007394305E04FF65F77394044F010074B
:102E3000394302830184F0BD028B4FF6F3731A40CD
:102E40000283028B0A4302837047F0B50C46154695
:102E500000220021068C4FF6FE773E400684028B4E
:102E6000018C4FF60C7632407E1C06EA03162E4388
:102E70003243704EB0420ED06F4EB0420BD0B0F124
:102E8000804F08D06D4EB04205D06D4EB04202D09A
:102E90006C4EB04206D14FF6FD76314044F001064B
:102EA000314305E04FF6F576314044F001063143F9
:102EB00002830184F0BD70B505460C465D4885422D
:102EC0000ED05D4885420BD0B5F1804F08D05B48ED
:102ED000854205D05A48854202D05A48854200D1E1
:102EE00000E000BF208850B92389A2886188284665
:102EF000FFF7ABFFE1882846FFF79EFF25E020881B
:102F000004280AD12389A28861882846FFF753FF45
:102F1000E1882846FFF742FF17E0208808280AD1F9
:102F20002389A28861882846FFF7FBFEE1882846AE
:102F3000FFF7EEFE09E02389A28861882846FFF7A3
:102F4000A6FEE1882846FFF795FE70BD2DE9F04109
:102F500005460C4600260127608808B9022600E0D5
:102F60000026A088012801D1022700E0012720883F
:102F7000A0B92389A28861882846FFF766FFE18807
:102F80002846FFF759FF23893A4631462846FFF77E
:102F900012FFE1882846FFF701FF13E02389A2888A
:102FA00061882846FFF707FFE1882846FFF7F6FE0D
:102FB00023893A4631462846FFF747FFE1882846ED
:102FC000FFF73AFFBDE8F0810A884B881A438B88E7
:102FD0001A43CB881A430B891A434B891A438B89AE
:102FE0001A43A0F8442070474FF6FF7181800021FA
:102FF0000180C180418001727047002101804180C1
:103000008180C180018141818181C181704700211E
:1030100001804180012181800021C18001817047B0
:103020000021018041808180C180018141818181B5
:1030300070470000002C01400034014000040040B3
:1030400000080040000C004021B1028842F001025B
:10305000028004E002884FF6FE731A400280704737
:1030600031B1B0F8442042F40042A0F8442005E019
:10307000B0F84420C2F30E02A0F8442070471AB101
:1030800083890B43838102E083898B43838170476B
:103090008182704741EA0203A0F8483070471AB1B4
:1030A00083890B43838102E083898B43838170474B
:1030B00001894FF6F8721140018170470A460021DC
:1030C00001894FF68F73194011430181704730B564
:1030D00004460D4629462046FFF7F0FF208940F0C0
:1030E0000700208130BD2DE9F04104460D4616460B
:1030F0001F46602D06D13B46012231462046FFF790
:103100005AFE05E03B46012231462046FFF79DFE70
:1031100029462046FFF7D2FF208940F00700208192
:10312000BDE8F08130B50C4600210189C9B24FF6E7
:10313000FF7505EA0325154325432943018130BD69
:103140002DE9F04105460E461746984600244346B1
:103150003A4631462846FFF7E5FF2C894FF6F870CE
:10316000044044F007044FF68F70044044F07004AC
:103170002C81BDE8F081F0B504460D4616461F4689
:103180003B46324629462046FFF7CCFF208940F4D3
:1031900080402081F0BD0185828270470A4600216F
:1031A00001884FF68F731940114301807047F0B5C5
:1031B0000C4615461E460021002200230189028B81
:1031C000038C4FF6F877394021434FF6FC473A40DD
:1031D00040F201173A434FF6DD773B404FF6FF7759
:1031E00007EA06172F433B43018102830384F0BDA6
:1031F0000A460021018B4FF68F731940114301835A
:1032000070470A460021018B48F6FF7319404FF6BC
:10321000FF7303EA02231943018370470A46002122
:10322000818B4FF68F7319401143818370470A4693
:103230000021818B48F6FF7319404FF6FF7303EAB4
:10324000022319438183704721B1028842F0800232
:10325000028004E002884FF67F731A4002807047B4
:1032600021B1828842F00402828004E082884FF615
:10327000FB731A408280704721B1828842F00802B5
:10328000828004E082884FF6F7731A40828070478C
:1032900021B1828842F00102828004E082884FF6E8
:1032A000FE731A40828070470A460021018B4FF658
:1032B000F77319401143018370470A460021018BBF
:1032C0004FF2FF7319404FF6FF7303EA02231943CD
:1032D000018370470A460021818B4FF6F77319402E
:1032E0001143818370470A460021818B4FF2FF739F
:1032F00019404FF6FF7303EA022319438183704795
:103300000A460021018B4FF6FB73194011430183DC
:1033100070470A460021018B4FF6FF3319404FF6E4
:10332000FF7303EA02231943018370470A46002111
:10333000818B4FF6FB7319401143818370470A4616
:103340000021818B4FF6FF3319404FF6FF7303EADC
:1033500002231943818370470A460021018B4FF6EF
:103360007F7319401143018370470A460021018B86
:10337000C1F30E014FF6FF7303EA022319430183E1
:1033800070470A460021818B4FF67F731940114325
:10339000818370470A460021818BC1F30E014FF6ED
:1033A000FF7303EA02231943818370470A46002111
:1033B000018C4FF6FD7319401143018470470A4692
:1033C0000021018C4FF6F7731940114301847047B7
:1033D0000A460021018C4FF6DF7319404FF6FF7348
:1033E00003EA02131943018470470A460021018C45
:1033F0004FF67F7319404FF6FF7303EA0213194328
:10340000018470470A460021018C4FF6FF53194092
:103410004FF6FF7303EA02231943018470470A46FB
:103420000021018C4FF2FF7319404FF6FF7303EA3E
:1034300002231943018470470A460021018C4DF68E
:10344000FF7319404FF6FF7303EA023319430184F7
:10345000704730B5002301248C40A3B2048C9C43F8
:103460000484048C02FA01F5ADB22C43048430BD0F
:1034700030B5002304248C40A3B2048C9C43048404
:10348000048C02FA01F5ADB22C43048430BD70B552
:103490000346002000241846183001258D40ACB2A8
:1034A0001D8CA5431D8409B1082909D100EB6100D9
:1034B000056825F0700505600568154305600EE098
:1034C0000D1FC5F34E052844056825F4E045056049
:1034D00005684FF6FF7606EA02263543056070BDA3
:1034E00021B1028842F00202028004E002884FF615
:1034F000FD731A400280704721B1028842F0040235
:10350000028004E002884FF6FB731A400280704785
:1035100021B1828842F08002828004E082884FF6E6
:103520007F731A408280704702884FF6F7731A4003
:10353000028002880A430280704782884FF68F73A8
:103540001A40828082880A438280704702894FF63F
:10355000F8731A40028102890A4302817047028986
:103560004FF67F731A40028102890A430281704735
:1035700081847047818570478186704701877047D5
:1035800081877047A0F84010704702884FF6FF43CC
:103590001A40028002880A43028070470146888EE2
:1035A00070470146088F70470146888F7047014673
:1035B000B1F8400070470146888C70470146088D7D
:1035C000704702460020138A0B400BB1012000E037
:1035D00000207047CA430282704730B5024600207F
:1035E00000230024158A05EA0103958905EA0104F0
:1035F00013B10CB1012000E0002030BDCA430282AB
:103600007047000010B50446FB48844209D10121EF
:103610008803FFF79FF800214FF48040FFF79AF8E6
:1036200032E0F648844209D101214804FFF79FF8AF
:1036300000214FF40030FFF79AF825E0F04884426B
:1036400009D101218804FFF792F800214FF480206E
:10365000FFF78DF818E0EB48844209D10121C80436
:10366000FFF785F800214FF40020FFF780F80BE00A
:10367000E548844208D101210805FFF778F80021C8
:103680004FF48010FFF773F810BD2DE9F04786B0B6
:1036900005460E460024A24600BFA1460027B08979
:1036A00000B100BF2F462C8A4CF6FF700440F08812
:1036B00004432C82AC894EF6F3100440B088318963
:1036C0000843718908430443AC81AC8A4FF6FF403C
:1036D0000440B0890443AC8201A8FEF7B4FFC64899
:1036E000874202D1DDF810A001E0DDF80CA0A88926
:1036F00000F4004040B10AEBCA0000EB0A10316848
:103700004900B0FBF1F807E00AEBCA0000EB0A1031
:1037100031688900B0FBF1F86420B8FBF0F00401D7
:103720002009642101FB1089A88900F4004040B100
:10373000322000EBC900B0FBF1F000F007000443B9
:1037400008E0322000EB09106421B0FBF1F000F03A
:103750000F0004432C8106B0BDE8F0874FF41651EA
:10376000016000218180C18001810C214181002103
:103770008181704710B502460020108A4FF2FF0386
:1037800018400B884C8823438C882343CC882343E0
:103790001843108210BD0021018041808180C180CA
:1037A000704721B1828942F40052828104E082890B
:1037B0004DF6FF731A4082817047F0B5034600242E
:1037C00000260025002040F66A17B94200D100BF4C
:1037D0001846C1F3421401F01F06012707FA06F547
:1037E000012C01D10C3004E0022C01D1103000E09A
:1037F00014301AB107682F43076002E00768AF432F
:103800000760F0BD1AB1838A0B43838202E0838A8A
:103810008B4383827047028A4FF6F0731A4002820C
:10382000028A0A430282704782894FF2FF731A406C
:10383000828182890A438281704721B1828942F064
:103840000202828104E082894FF6FD731A40828170
:103850007047028A4FF6DF731A400282028A0A43D7
:103860000282704721B1028A42F48042028204E05F
:10387000028A4BF6FF731A4002827047C1F30802B6
:103880008280704701468888C0F3080070478189AC
:1038900041F0010181817047028BD2B20283028B19
:1038A00042EA012202837047028B02F47F420283C4
:1038B000028B0A430283704721B1828A42F02002C0
:1038C000828204E0828A4FF6DF731A408282704758
:1038D00021B1828A42F01002828204E0828A4FF68D
:1038E000EF731A408282704721B1828A42F0080247
:1038F000828204E0828A4FF6F7731A408282704710
:1039000021B1828942F40042828103E08289C2F3BC
:103910000E028281704721B1828A42F40062828263
:1039200004E0828A4FF2FF731A4082827047828AD3
:103930004FF6FB731A408282828A0A438282704762
:1039400021B1828A42F00202828204E0828A4FF62A
:10395000FD731A408282704702460020B1F5007F55
:1039600000D100BF13880B400BB1012000E0002004
:10397000704701F40072B2F5007F00D100BFCA4366
:103980000280704770B50246002400230025002005
:1039900040F66A16B14200D100BFC1F3421501F0F2
:1039A0001F03012606FA03F3012D02D19689334045
:1039B00006E0022D02D1168A334001E0968A334098
:1039C0000C12012606FA04F41688344013B10CB127
:1039D000012000E0002070BD10B50022002340F659
:1039E0006A14A14200D100BF0A1201249440A3B27C
:1039F000DC43048010BD000000380140004400405A
:103A000000480040004C00400050004010B5044603
:103A1000FA48844208D101214015FEF79BFE00219F
:103A20006015FEF797FE17E0F548844208D10121A2
:103A30000015FEF78FFE00212015FEF78BFE0BE030
:103A4000F048844208D10121C803FEF783FE00211B
:103A50004FF40040FEF77EFE10BD30B50246002058
:103A600000235068E84C20400D790C6844EA052496
:103A7000204350609068E54C2040D1E902542C432B
:103A80004D7944EA450420439060D06A20F47000E8
:103A90000C7C641EE4B2234340EA0350D06230BD84
:103AA00000210160017141718160C16001210174D7
:103AB000704721B1826842F00102826003E08268AF
:103AC00022F001028260704721B1826842F4807264
:103AD000826003E0826822F480728260704710B5D1
:103AE0000023CBB21AB144681C43446002E044682E
:103AF0009C43446010BD816841F0080181607047BB
:103B0000014600208A6802F008020AB1012000E0A4
:103B100000207047816841F00401816070470146D0
:103B200000208A6802F004020AB1012000E00020AF
:103B3000704721B1826842F4A002826003E082688B
:103B400022F4A00282607047014600208A6802F4D5
:103B500080020AB1012000E00020704710B50A463B
:103B600000210023416821F46041531E41EA4331A2
:103B7000416010BD21B1426842F40062426003E03E
:103B8000426822F4006242607047F0B504460D4678
:103B900000200021092D11DDE068A5F10A0606EBE1
:103BA0004607072606FA07F18843A5F10A0606EB41
:103BB000460603FA06F10843E0600CE0206905EBD5
:103BC0004507072606FA07F1884305EB450603FA81
:103BD00006F108432061072A0FDA606B561E06EBD8
:103BE00086071F2606FA07F18843561E06EB86064F
:103BF00005FA06F10843606322E00D2A0FDA206B14
:103C0000D61F06EB86071F2606FA07F18843D61F44
:103C100006EB860605FA06F10843206310E0E06A29
:103C2000A2F10D0606EB86071F2606FA07F1884368
:103C3000A2F10D0606EB860605FA06F10843E062DE
:103C4000F0BD21B1826842F48012826003E0826894
:103C500022F48012826070470146C86C80B27047BF
:103C600066484C300068704721B1426842F4806277
:103C7000426003E0426822F480624260704721B1F2
:103C8000426842F48052426003E0426822F480526B
:103C9000426070470A460021816821F4E0411143E7
:103CA0008160704721B1826842F40042826003E083
:103CB000826822F400428260704721B1826842F437
:103CC0000212826003E0826822F40212826070476E
:103CD000014600208A6802F400120AB1012000E0C7
:103CE00000207047F0B5044615460020002200264B
:103CF000092911DDE068A1F10A0707EB470C072746
:103D000007FA0CF29043A1F10A0707EB470703FA01
:103D100007F21043E0600CE0206901EB410C07273B
:103D200007FA0CF2904301EB410703FA07F2104344
:103D30002061A06BC0F30156EF1C06F1010CA7EB4C
:103D40000C0707EB870C1F2707FA0CF29043EF1CB8
:103D500006F1010CA7EB0C0707EB870701FA07F246
:103D60001043A063F0BD10B50A4600210023816B0B
:103D700021F44011531E41EA0351816310BD08B57F
:103D8000002300930090009B0B440093009B1A605B
:103D900008BD08B5024600200090009201F12800FD
:103DA000009B184400900098006880B208BD0A4645
:103DB00000214168164B1940114341607047416230
:103DC000826270470A460021416821F01F011143B9
:103DD0004160704740B109490831096841F4000168
:103DE000064A0832116007E004490831096821F4E5
:103DF0000001024A083211607047000000240140AF
:103E000000280140003C0140FFFEF0FFFDF7F1FFFC
:103E1000FFFD3FFF0246002013680B400BB101205D
:103E200000E000207047CA430260704770B5024648
:103E30000020002300240B125568CEB205EA0604C8
:103E400015681D4015B10CB1012000E0002070BDC7
:103E500000220A12D34303607047000010B501210D
:103E60004807FEF784FC00214FF00050FEF77FFC6E
:103E700010BD30B5002200235A4C226840F6FE7473
:103E80008440A243D1E900452C438D682C43CD6882
:103E900044EA050303FA00F42243524C226030BD89
:103EA0000021016041608160C160704739B14D4AB5
:103EB0001268012383401A434A4B1A6006E0494ABC
:103EC0001268012383409A43464B1A60704741B100
:103ED000444A12684FF4805383401A43414B1A609E
:103EE00007E0404A12684FF4805383409A433D4BA9
:103EF0001A60704710B551B13A4A121D1268040990
:103F00000123A3401A43374B1B1D1A6009E0354AB1
:103F1000121D126804090123A3409A43314B1B1D53
:103F20001A6010BD40B12F49091D096841F0030115
:103F30002C4A121D116007E02A49091D096821F069
:103F40000301284A121D1160704710B53AB1254B84
:103F50001B6801FA00F42343224C236006E0214B46
:103F60001B6801FA00F4A3431E4C236010BD08B582
:103F7000002200921B4A009200F10802009B1A44A2
:103F80000092009A116008BD08B500220092154AFF
:103F9000009200F11402009B1A440092009A1160F2
:103FA00008BD30B500240023082802D142EA0124CC
:103FB00001E042EA01440B4B00F120052B441C6058
:103FC00030BD08B5014600200090064800902C2026
:103FD00000EB9100009A104400900098006880B2B5
:103FE00008BD000000740040002044490860091D1D
:103FF0000860091D0860091D086041483F491431E7
:104000000860704700213D498279002A3AD00A466B
:10401000126803689A430B461A600A1D1268036807
:104020009A430B1D1A60027911440A6803681A4307
:104030000A60324A0832126803689A432F4B0833E9
:104040001A601A1D126803689A432C4B0C331A60CD
:104050004279102A0ED11A1F126803681A43274B9F
:1040600008331A601A1D126803681A43234B0C3375
:104070001A600DE02149427911440A6803681A4325
:104080000A6005E0027911440A6803689A430A60ED
:1040900070470021016001710C2141710021817183
:1040A00070471649103109680143144A10321160F3
:1040B000704701460020114A143212680A400AB1C2
:1040C000012000E0002070470C491431086070475F
:1040D000014600200022094B1B6803EA0102074B3E
:1040E00014331B680B4013B10AB1012000E000201B
:1040F0007047024914310860704700000004014015
:10410000FFFF0F0001460020FE4A106800F0380053
:10411000084310607047FB49096821F00801F94A1B
:10412000116011460968014311607047F54909683B
:1041300021F01001F34A1160114609680143116032
:104140007047F148EF494860F04848607047EE48D2
:10415000EC494860ED4848607047EA48006940F023
:104160008000E84908617047E648006940F0800037
:10417000E449086170470420E249C96801F001017F
:1041800009B101200EE0DF49C96801F0040109B15D
:10419000022007E0DB49C96801F0100109B10320E2
:1041A00000E00420704700B502460423FFF7E3FF58
:1041B000034603E0FFF7DFFF0346521E012B01D148
:1041C000002AF7D102B90523184600BD30B50446D0
:1041D00004254FF43020FFF7E6FF0546042D17D1E4
:1041E000C848006940F00200C649086108464461B9
:1041F000006940F0400008614FF43020FFF7D3FF22
:104200000546C048006941F6FD710840BD49086196
:10421000284630BD10B504244FF43020FFF7C3FF0B
:104220000446042C16D1B748006940F00400B54993
:1042300008610846006940F0400008614FF43020F2
:10424000FFF7B1FF0446AF48006941F6FB71084033
:10425000AC490861204610BD00B502460423FFF7B3
:104260008AFF034603E0FFF786FF0346521E012B39
:1042700001D1002AF7D102B90523184600BD10B5B7
:1042800004244FF43020FFF7E7FF0446042C16D136
:104290009C48006940F004009A490861084600699A
:1042A00040F0400008614FF43020FFF7D5FF04468E
:1042B0009448006941F6FB71084092490861204624
:1042C00010BD00208F49C96901F0020109B1012028
:1042D00000E00020704730B5A5250424FFF7F1FF6A
:1042E00000B100254FF43020FFF75DFF0446042C99
:1042F0003AD18548834988608448886008460069C7
:1043000040F0200008610846006940F04000086164
:104310004FF43020FFF747FF0446042C1BD17948A7
:10432000006941F6DF710840764908610846006976
:1043300040F01000086176480580E002FFF733FF87
:104340000446052C10D06F48006941F6EF71084013
:104350006C49086108E0052C06D06A48006941F6FE
:10436000EF71084067490861204630BD78B50646C0
:104370000C46042500200090E802FFF714FF0546D4
:10438000042D24D15F48006940F001005D490861B7
:104390003480E802FFF707FF0546042D10D1B01C5A
:1043A0000090200C00990880E802FFF7FCFE05460B
:1043B0005448006941F6FE7108405249086106E020
:1043C0005048006941F6FE7108404E490861284690
:1043D00078BD70B504460D460426F002FFF7E3FEF3
:1043E0000646042E11D14748006940F001004549B6
:1043F00008612580F002FFF7D6FE064641480069B5
:1044000041F6FE7108403F490861304670BD70B505
:1044100005460E460424E002FFF7C5FE0446042CC0
:1044200017D139483749886038488860084600699C
:1044300040F0100008612E80E002FFF7B4FE044651
:10444000052C06D02F48006941F6EF7108402D4930
:104450000861204670BD2DE9F04304464FF6FF7613
:104460003746B046B1460425E443E6B2C4F3072715
:10447000C4F307484FEA1469E802FFF794FE0546C3
:10448000042D49D120481F4988602048886008468B
:10449000006940F010000861FF2E06D01C4808306B
:1044A0000680E802FFF77FFE0546042D08D1FF2FA6
:1044B00006D017480A300780E802FFF774FE054669
:1044C000042D0AD1B8F1FF0F07D011480C30A0F825
:1044D0000080E802FFF767FE0546042D0AD1B9F116
:1044E000FF0F07D00A480E30A0F80090E802FFF74F
:1044F0005AFE0546052D0FD00248006941F6EF71BE
:10450000084007E00020024023016745AB89EFCD5A
:1045100000F8FF1F664908612846BDE8F08330B502
:10452000054604244FF43020FFF73DFE0446042CDA
:1045300041D160485E4988605F48886008460069EC
:1045400040F0200008610846006940F04000086122
:104550004FF43020FFF727FE0446042C22D15448A4
:10456000006941F6DF710840514908610846006959
:1045700040F0100008611DB100205049088002E0A1
:10458000A5204E4908804FF43020FFF70CFE04466A
:10459000052C10D04648006941F6EF7108404449A7
:1045A000086108E0052C06D04148006941F6DF713A
:1045B00008403F490861204630BDF0B505460E462B
:1045C000174604243B483A4988603B488860E0022B
:1045D000FFF7E9FD0446042C19D13548006940F085
:1045E00010003349086147F0F8003043284333494D
:1045F000891C0880E002FFF7D6FD0446052C06D092
:104600002B48006941F6EF710840294908612046AE
:10461000F0BD2748C069800870472548006A704788
:1046200000202349096801F0200109B1012000E0C0
:104630000020704729B11E4A126902431C4B1A61BF
:1046400004E01B4A12698243194B1A617047014604
:104650000020012908D1164AD26902F001020AB1EC
:10466000012008E0002006E0114AD2680A400AB1A1
:10467000012000E0002070470D49C8607047042009
:104680000B49C96801F0010109B101200EE0084998
:10469000C96801F0040109B1022007E00449C968B2
:1046A00001F0100109B1032000E004207047000070
:1046B0000020024023016745AB89EFCD00F8FF1FC2
:1046C000084800687047074A1268111800BF054A79
:1046D00012688A1A002AFADC7047704770477047E0
:1046E00070477047C800002010B54FF4FA21012030
:1046F000FDF749F904464FF4FA2120460BF03CFD42
:1047000080200BF04FFE02480DF046FA10BD00006D
:10471000302502082DE9F04107460C4615461E4695
:10472000B2B2A9B2A0B203F0DCFBBDE8F0812DE982
:10473000F04107460C461546A9B2A0B203F03BF97A
:1047400006463046BDE8F0812DE9F04104460D46AD
:104750001646324629462046FFF7E9FF07462169FB
:1047600088688047804687EA080332462946204603
:10477000FFF7D0FFBDE8F0812DE9F84380460C46F5
:1047800015461E46089FFE480068C06B008880B230
:10479000BBB2B2B2A9B20090A0B207F05FFABDE816
:1047A000F883F8B505460E4614461F463B4622469A
:1047B000314628460094FFF7DFFFF8BDF8B50646FE
:1047C0000C4617461D4623463A462146304600957C
:1047D000FFF7D2FFF8BD2DE9FF4F83B081460E46AB
:1047E0001C46DDE9117A109DDAF800000290DAF833
:1047F000040001902E44E2480068007C00F00300B1
:1048000030B1012836D002281CD0032855D130E021
:1048100000BF207880222A41104008B1019800E0B2
:10482000029803463146761C4846059AFFF772FF08
:10483000681C0546082801D10025641C781E070065
:10484000E7D13AE000BF207880212941084028B113
:1048500031464846019B059AFFF75CFF761C681CB1
:104860000546082801D10025641C781E0700EAD1FE
:1048700023E000BFD9F8101088688047804600BF49
:10488000207880212941084060B131464846059A88
:10489000FFF74DFF83468BEA080331464846059AE9
:1048A000FFF738FF761C681C0546082801D1002553
:1048B000641C781E0700E3D100BF00BF07B0BDE84D
:1048C000F08F2DE9FF4F81B00F469846DDE90F9A32
:1048D00098F800B00E9D0E9D2F44A9480068007CFA
:1048E00000F0030010B102284BD14BE0BAF1000FE9
:1048F00025D000BFC5F103004400C4F10601C0206B
:10490000084100EA0B0020FA04F65AF8260000904D
:1049100039467F1CDDE90030039AFFF7FBFE681C77
:104920000546042805D1002508F10100804690F8CD
:1049300000B0A9F101005FEA0009DBD121E000BF6E
:10494000C5F103004400C4F10601C020084100EA9B
:104950000B0020FA04F639467F1C3346039A01986F
:10496000FFF7D8FE681C0546042805D1002508F18C
:104970000100804690F800B0A9F101005FEA00094B
:10498000DED14DE0BAF1000F26D000BFC5F1030023
:104990004400C4F10601C020084100EA0B0020FADF
:1049A00004F646B15AF8260000903946DDE9003099
:1049B000039AFFF7AFFE7F1C681C0546042805D14B
:1049C000002508F10100804690F800B0A9F101002F
:1049D0005FEA0009DAD122E000BFC5F1030044001C
:1049E000C4F10601C020084100EA0B0020FA04F6D9
:1049F0002EB133463946039A0198FFF78BFE7F1C90
:104A0000681C0546042805D1002508F101008046F0
:104A100090F800B0A9F101005FEA0009DDD100BF04
:104A200000BF05B0BDE8F08F2DE9FF4F81B00F4604
:104A30009846DDE90F9A98F800B00E9D0E9D2F4420
:104A40004F480068007C00F0030010B102284BD1F1
:104A50004BE0BAF1000F25D000BFC5F10100840082
:104A6000C4F10401F020084100EA0B0020FA04F62A
:104A70005AF82600009039467F1CDDE90030039A81
:104A8000FFF748FE681C0546022805D1002508F1FD
:104A90000100804690F800B0A9F101005FEA00092A
:104AA000DBD121E000BFC5F101008400C4F10401A5
:104AB000F020084100EA0B0020FA04F639467F1C7A
:104AC0003346039A0198FFF725FE681C0546022825
:104AD00005D1002508F10100804690F800B0A9F149
:104AE00001005FEA0009DED150E0BAF1000F26D0E4
:104AF00000BFC5F101008400C4F10401F0200841A9
:104B000000EA0B0020FA04F646B15AF8260000909D
:104B10003946DDE90030039AFFF7FCFD7F1C681C75
:104B20000546022805D1002508F10100804690F8CD
:104B300000B0A9F101005FEA0009DAD125E000BF69
:104B4000C5F101008400C4F10401F020084100EA2D
:104B50000B0020FA04F62EB133463946039A019829
:104B6000FFF7D8FD7F1C681C0546022805D10025EB
:104B700008F10100804690F800B0A9F1010001E0C1
:104B8000280100205FEA0009DAD100BF00BF05B0AC
:104B9000BDE8F08F2DE9F04781460F4692461C464E
:104BA000DDE90858F4480068007C00F0030010B10B
:104BB000022841D11EE0B8F1000F0ED00AE026789D
:104BC00058F82630524639464846FFF7A3FD6D1E79
:104BD0007F1C641C002DF2DC0BE008E023785246B9
:104BE00039464846FFF796FD6D1E7F1C641C002D5C
:104BF000F4DC21E0B8F1000F0FD00BE0267836B1DD
:104C000058F82630524639464846FFF783FD6D1E58
:104C10007F1C641C002DF1DC0DE00AE026782EB12B
:104C20003346524639464846FFF774FD6D1E7F1CD9
:104C3000641C002DF2DC00BF00BFBDE8F0872DE949
:104C4000F04781460C4617461D46DDF82080B9B274
:104C5000A0B202F0DFFDC9480089C949096808808F
:104C600007E02E88C74800680680A8F10108641C88
:104C7000AD1CB8F1000FF4DCBDE8F0872DE9F04180
:104C800007460D4690461C46069E08E042462946C9
:104C900038462368FFF73EFD761E6D1C241D002E4E
:104CA000F4DCBDE8F0812DE9FF4F83B015461E46C8
:104CB000DDE914BADDE91297DDF840801198082883
:104CC0003FD006DC012809D0022818D0042863D17F
:104CD00026E0102844D020285ED14FE000240BE0CD
:104CE00062193B46CDE900B6CDF808A0DDE9030125
:104CF000FFF771FD4F44641C4445F1DB4CE0002498
:104D00000BE062193B46CDE900B6CDF808A0DDE91D
:104D10000301FFF7D6FD4F44641C4445F1DB3BE043
:104D200000240BE062193B46CDE900B6CDF808A09F
:104D3000DDE90301FFF778FE4F44641C4445F1DBD5
:104D40002AE0002409E062193B46CDE9006ADDE96A
:104D50000301FFF71FFF4F44641C4445F3DB1BE0D6
:104D6000002408E062193B460096DDE90301FFF7E5
:104D700066FF4F44641C4445F4DB0DE0002408E06A
:104D800062193B460096DDE90301FFF777FF4F44C8
:104D9000641C4445F4DB00BF00BF07B0BDE8F08FE2
:104DA00070B50446A06858B91C200BF02BFAA0601F
:104DB000A56821698868804706460FF007F9A86151
:104DC000A06808B9012070BD0020FCE703460A4630
:104DD00099680F2A1FD2DFE802F01E080A0C0E1E87
:104DE0001E1E10121416181A1C0048687047886896
:104DF000FCE7C868FAE70869F8E78869F6E7002081
:104E0000F4E70120F2E70120F0E70020EEE70020C0
:104E1000ECE70020EAE74FF0FF30E7E70246012920
:104E200001D1594870470020FCE7826800230B80BD
:104E30004B8093895B1E1BB28B80138A5B1E1BB257
:104E4000CB8070477CB504460D4616460020009086
:104E50000190009501966A460321A06900F0B8F917
:104E60007CBDF8B504460D46002000902046FFF7B3
:104E700097FFA06838B1A668356000956A460221A0
:104E8000A06900F0A5F9F8BD2DE9F04105460E46F0
:104E900017462846FFF784FFA86818B1AC68E6609B
:104EA00027616661BDE8F0812DE9FC4105460E46AB
:104EB00017460020009001902846FFF771FFA86870
:104EC00078B1AC68606908B9304600E0606960613B
:104ED0006660A760009601976A460721A86900F0FE
:104EE00077F9BDE8FC8170B504462046FFF758FF0E
:104EF000054600220121A06900F06AF90543284611
:104F000070BD10B5044600220521A06900F060F9CB
:104F100010BD10B5044600220621A06900F058F922
:104F200010BD7CB504460D46164600200090019049
:104F30008DF8045000966A460421A06900F048F9F3
:104F40007CBD0246A1F10900082813D2DFE800F079
:104F50000406080A120C0E100C4870470C48FCE7B7
:104F60000C48FAE70C48F8E70C48F6E70C48F4E779
:104F70000C48F2E70020F0E72801002080AF002075
:104F8000CC000020D0000020DC4E0208634E000858
:104F9000894E0008A94E0008E74E0008034F00089C
:104FA000134F0008234F00087047704710B518488A
:104FB000808845F21051884205D01548808841F616
:104FC0006311884207D1134841680020884711487F
:104FD0008489204610BDD02001F016F8FAE710B5FC
:104FE0000B48808845F21051884205D008488088D7
:104FF00041F66311884207D106484168002088477E
:105000000448C48A204610BD902000F0FDFFFAE756
:1050100080AF0020D800002008B500231A4673494D
:1050200073480BF0F7FB73484288018800200EF0AC
:10503000B5FE70484288018800200EF0C5FE6D481C
:10504000808845F21051884228D16A48807990B909
:1050500040F2DF100023421C1946009018460CF065
:10506000FFFE40F21F300023421C19460090012031
:105070000CF0F6FEABE040F2DF100023421C1946B4
:10508000009018460CF0ECFE40F21F300023421C4A
:105090001946009001200CF0E3FE98E05548808806
:1050A00041F66311884228D15248807990B940F284
:1050B0001F300023421C1946009018460CF0D0FE09
:1050C00040F2DF100023421C1946009001200CF032
:1050D000C7FE7CE040F21F300023421C19460090BE
:1050E00018460CF0BDFE40F2DF100023421C1946AA
:1050F000009001200CF0B4FE69E03E48808845F243
:105100001031884205D03B48808846F60401884229
:105110002FD138488079A0B9E22040F65B734FF474
:10512000A0720021009008460CF09AFEC42040F6C0
:10513000E4634FF4F0720021009001200CF090FE27
:1051400045E006200CF086FFE22040F65B734FF44A
:10515000A0720021009008460CF082FEC42040F6A8
:10516000E4634FF4F0720021009001200CF078FE0F
:105170002DE020488079A0B940F63F7000901D488E
:1051800002889B23002108460CF06AFE40F65F70FF
:10519000009018484288BC23002101200CF060FEDA
:1051A00015E006200CF056FF40F63F709B23F022DE
:1051B0000021009008460CF053FE40F65F70BC23BF
:1051C0004FF4A0720021009001200CF049FE08BDB0
:1051D00010B503461446012901D1002010BD4FF03F
:1051E000FF3200BF00BF1046F8E70000141E02089F
:1051F00054E3010880AF002010B50520FBF7F1F95A
:1052000010BD9848806940F00800964988610846BA
:10521000806940F0800088619348006820F0F000C9
:10522000914908600846006840F0300008608F48E7
:10523000006820F0F0008D4908600846006840F0E2
:105240003000086088480C30006840F00200864951
:105250000C31086085480830006840F400708349CC
:1052600008310860704710B58048006820F0F000F1
:105270007E4908600846006840F030000860012060
:105280007B4908607B49C1F884011E20FBF7A9F91E
:10529000002077490860FFF7AFFF00207549C1F88B
:1052A000840110BD10B57148006820F0F0006F490E
:1052B00008600846006840F03000086001206E4930
:1052C00008601E20FBF78DF900206C49C1F8A4018D
:1052D000FFF792FF01206649086010BD10B5002459
:1052E0006248006820F0F0006049086008460068E5
:1052F00040F08000086001205D4908605D49C1F808
:105300008401FFF779FF09E0601CC4B2FA2C03DDC9
:10531000FFF7C8FF012010BDFFF76EFF544880382B
:1053200000680028F0D15449086000BFF3E710B5C9
:105330000020514908604D48006820F0F0004B49BA
:1053400008600846006840F030000860FFF754FF2E
:1053500000204A49C1F8A401FFF74EFF0120464949
:105360000860FFF749FF00204249C1F8840110BDE1
:1053700010B50020404908603C48006820F0F0006B
:105380003A4908600846006840F030000860FFF7BE
:1053900033FF01203949C1F8A401FFF72DFF012097
:1053A00035490860FFF728FF00203249C1F8840121
:1053B00010BD70B504462D48006820F0F0002B4960
:1053C00008600846006840F03000086000202A4964
:1053D0000860FFF711FF002511E0E009244908608B
:1053E0006006040E01202349C1F88401FFF704FF81
:1053F000002021490860FFF7FFFE681CC5B2082D98
:10540000EBDB70BD70B5054600241848006820F03D
:10541000F000164908600846006840F08000086007
:105420001E20FBF7DEF8002612E00020124908607B
:10543000FFF7E2FE01200F49C1F884016006040E67
:105440000B488038006808B1601CC4B2701CC6B23A
:10545000082EEADB15B9FFF78BFF01E0FFF767FFC6
:10546000204670BD00100240000C0140041C0140A9
:10547000A481234200802142848121420080234272
:105480002DE9F04105460E4617464FF00008FFF79C
:10549000EAFE7020FFF78DFFFFF720FFE8B2FFF76D
:1054A00088FFFFF71BFF00240BE0305DFFF781FF53
:1054B000FFF714FF8046B8F1000F00D003E0601C36
:1054C000C4B2BC42F1DB00BFFFF7ECFE4046BDE8D2
:1054D000F0812DE9F04106460F461546FFF7C3FE61
:1054E0007020FFF766FFFFF7F9FEF0B2FFF761FFEC
:1054F000FFF7F4FEFFF7B7FE7120FFF75AFFFFF743
:10550000EDFE00240BE0691EA14201D0012100E064
:1055100000210846FFF776FF3855601CC4B2AC4244
:10552000F1DBFFF7BFFEBDE8F08108B59248806966
:1055300040F08000904988619048006820F47F40E6
:105540008E4908600846006840F4605008608B4847
:105550000830006840F44060884908310860FFF76F
:1055600050FE0020864908601420FBF75EF80120F9
:105570008449C1F8AC013220FBF757F800208DF8C0
:10558000000001226946FFF77BFF01226946A42043
:10559000FFF776FF16208DF8000001226946802073
:1055A000FFF76EFF0C208DF800000122694688206D
:1055B000FFF766FF02226946A120FFF78AFF9DF8E8
:1055C000000030280ED19DF8010003280AD19DF873
:1055D00001009DF8002000EB02216BA007F0E0FA2B
:1055E000002008BD0120FCE771B581B00024002631
:1055F00068480078401C67490870084600780A210E
:1056000090FBF1F201FB120018B1624800780A2801
:1056100067DA012201A90220FFF75BFF9DF8040071
:1056200000F00F0000287ED09DF8040000F00F006D
:10563000062878DA9DF8040000F00F01FF2088406A
:10564000C5B2E843C0B240F0C000534981F8200021
:1056500000245AE0504890F820000121A140084061
:10566000F0B34E4931F8140004226946FFF731FFC8
:10567000494890F8300000F00100C0B19DF80100E9
:105680009DF8001001F00F0100EB01204249163196
:1056900021F814009DF803009DF8021001F00F019D
:1056A00000EB01213C480C3020F814101DE09DF85F
:1056B00001009DF8001001F00F0100EB0120C0F582
:1056C000F07081B234480C3020F814109DF80300BB
:1056D0009DF8021001F00F0100EB01212E4801E0BE
:1056E00011E020E0163020F814109DF8000000F0C2
:1056F000F000802807D000212748163020F8141029
:105700000A3820F81410601CC4B2052CA2DB012654
:105710002148808920B92048C08A08B9002001901A
:1057200000201C4908709DF8040000F01F00D0B94B
:10573000194890F8200000F0800040B1164890F819
:10574000200020F08000144981F820000BE04FF683
:10575000FF7011498881C882084690F8200000F047
:10576000E00081F820000B480078F02802DD0A20D4
:105770000849087030467CBD00100240041C0140FE
:10578000AC812342008023424354502049443A25AF
:10579000780D0A00D4000020D8000020540502082B
:1057A0002DE9F04104460E4617464FF00008FFF77A
:1057B0005AFD2820FFF7FDFDFFF790FD2012FFF7AF
:1057C000F8FDFFF78BFDE0B2FFF7F3FDFFF786FD75
:1057D00000250BE0705DFFF7ECFDFFF77FFD8046D5
:1057E000B8F1000F00D003E0681CC5B2BD42F1DB88
:1057F00000BFFFF757FD4046BDE8F08138B50546CC
:10580000002400208DF800008DF8015000BF09E051
:105810009DF80000E149095D0844C0B28DF8000020
:10582000601CC4B2B82CF3D39DF80000C043401CE8
:10583000C0B28DF80000B822D84948F24700FFF7FF
:10584000AFFF0222694648F2FF00FFF7A9FF0020E0
:1058500038BD2DE9F04105460F461646FFF703FD1A
:105860002820FFF7A6FDFFF739FD2812FFF7A1FD5D
:10587000FFF734FDE8B2FFF79CFDFFF72FFDFFF7C0
:10588000F2FC2920FFF795FDFFF728FD00240BE02F
:10589000711EA14201D0012100E000210846FFF75E
:1058A000B1FD3855601CC4B2B442F1DBFFF7FAFC1D
:1058B000BDE8F0811CB5BA48806940F08000B84965
:1058C0008861B848006820F47F40B64908600846FF
:1058D000006840F460500860B2480830006840F446
:1058E0004060B04908310860FFF78BFC0020AE49EA
:1058F00008600A20FAF799FE0120AC49C1F8AC0112
:105900000A20FAF792FEA748006820F47060A549C3
:1059100008600846006840F400600860A14808304C
:10592000006820F480609F49083108606420FAF71D
:105930007CFE0422694648F24010FFF78AFF0020EF
:105940008DF8040069469AA007F02AF99BA16846E1
:1059500007F050FB40BB02208DF800000122694691
:1059600048F24000FFF71CFF0122694648F2470059
:10597000FFF76FFF9DF80000602807DA9DF8001020
:1059800090A007F00DF90120FFF738FF0A20FAF781
:105990004CFE00208DF800000122694648F24000CC
:1059A000FFF7FEFE00201CBD0120FCE771B583B0AF
:1059B0000024002688480078401C87490870084663
:1059C00000780A2190FBF1F201FB120018B1824825
:1059D00000780A287EDA012203A948F24E10FFF768
:1059E00038FF9DF80C0000F0800068B19DF80C00B5
:1059F00000F00F00062807DA00200190012201A91B
:105A000048F24E10FFF7CCFE9DF80C0000F00F009E
:105A100000285FD09DF80C0000F00F000628D9DAAE
:105A20009DF80C0000F00F01FF208840C0B20190EB
:105A30006A4890F820509DF80400C043C0B240F07E
:105A4000C000664981F82000084681898182C18AA8
:105A5000C183002446E0614890F820000121A14064
:105A6000084020B35E4931F81400042202A9FFF770
:105A7000F0FE5A4890F8300000F00100C0B19DF8E7
:105A800008009DF8091000EB012081B25348163040
:105A900020F814109DF80A009DF80B1000EB01206F
:105AA000C0F5487081B24D480C3020F8141017E052
:105AB0009DF808009DF8091000EB012081B24748CD
:105AC0000C3020F814109DF80A009DF80B1000EB24
:105AD000012000E036E081B24048163020F8141072
